8=FIXT.1.1|9=106|35=A|34=1|49=dmx219-2|52=20190930-14:04:18.456|56=STUN|98=0|108=30|141=Y|553=dmx219-2|554=nueva123|1137=7|10=048|8=FIXT.1.1|9=55|35=0|34=2|49=dmx219-2|52=20190930-14:04:48.771|56=STUN|10=191|8=FIXT.1.1|9=55|35=0|34=3|49=dmx219-2|52=20190930-14:05:19.290|56=STUN|10=187|